:0400000094EF00F089
:100018005880D8CF3EF0E8CF3FF0E0CF40F0E1CFB6
:1000280041F0E2CF42F0D9CF43F0DACF44F0F3CF3A
:1000380045F0F4CF46F09DA024EF00F026EF00F045
:1000480032EF00F09EA02BEF00F02DEF00F032EF22
:1000580000F09E901AEC10F080EF00F09DAA37EFA8
:1000680000F039EF00F080EF00F0ABA43EEF00F0B5
:1000780040EF00F07CEF00F0AECF56F05550D8B40A
:1000880048EF00F04AEF00F05EEF00F0000E556E0A
:1000980020EE03F04F50D9265050DA22DECF01F07F
:1000A800DDCF02F0DEEC0CF04FC001F050C002F0E2
:1000B800DEEC0CF05450D8B464EF00F066EF00F0BA
:1000C80080EF00F0000E546E20EE03F04D50D9265C
:1000D8004E50DA22DECF01F0DDCF02F0DEEC0CF07C
:1000E8004DC001F04EC002F0DEEC0CF080EF00F0E5
:1000F8000DEC11F080EF00F046C0F4FF45C0F3FFAF
:1001080044C0DAFF43C0D9FF42C0E2FF41C0E1FF6B
:1001180040C0E0FF3FC0E8FF3EC0D8FF5890100045
:04012800CAEF11F019
:101000000000000E136E000E146E000E096E000E2E
:101010000A6E000E0D6E000E0E6E0001AC51AD1189
:10102000D8A415EF08F017EF08F01DEF08F0000E38
:10103000016E000E026E3DEF09F0ACC011F0ADC0C4
:1010400012F0A3EF08F011C0D9FF12C0DAFF01506F
:10105000DE1807E10250DE18D8A431EF08F033EFB4
:1010600008F060EF08F00D500E10D8B43AEF08F019
:101070003CEF08F04EEF08F020EE02F01150D926B8
:101080001250DA2210EE02F00D50E1260E50E2224C
:10109000DECFE6FFDDCFE5FF58EF08F020EE02F0EF
:1010A0001150D9261250DA22DECFACF0DDCFADF0F0
:1010B000020E1124016E000E1220026E3DEF09F0A7
:1010C00011C0D9FF12C0DAFFDE50015CDE500258B9
:1010D000D8B06DEF08F06FEF08F095EF08F01350FF
:1010E0001410D8B476EF08F078EF08F08DEF08F020
:1010F00013C0D9FF14C0DAFF11C0E1FF12C0E2FF34
:10110000DE50E65CDE50E658D8A089EF08F08BEFA1
:1011100008F08DEF08F095EF08F011C013F012C041
:1011200014F00DC009F00EC00AF011C00DF012C08D
:101130000EF020EE02F01150D9261250DA22DECF46
:1011400011F0DDCF12F011501210D8A4AAEF08F060
:10115000ACEF08F023EF08F013501410D8B4B3EF3D
:1011600008F0B5EF08F017EF08F020EE02F013508A
:10117000D9261450DA22DECF0FF0DDCF10F013C0E5
:10118000D9FF14C0DAFFDECF03F0DDCF04F0015049
:10119000035E0250045A045009E1050E035CD8A016
:1011A000D4EF08F0D6EF08F01AEF09F013C0D9FF1A
:1011B00014C0DAFFDECF03F0DDCF04F00150035E90
:1011C0000250045AFE0E0324076EFF0E0420086E20
:1011D00013C0D9FF14C0DAFF01C0DEFF02C0DDFF7B
:1011E00013C0D9FF14C0DAFFDECF03F0DDCF04F067
:1011F00003501324056E04501420066E020E0524BD
:101200000B6E000E06200C6E0BC0D9FF0CC0DAFF6F
:1012100007C0DEFF08C0DDFF20EE02F00B50D9262C
:101220000C50DA220FC0DEFF10C0DDFF0BC00FF044
:101230000CC010F013500001AC1907E11450AD19A7
:10124000D8A425EF09F027EF09F02DEF09F00FC022
:10125000ACF010C0ADF037EF09F020EE02F009500D
:10126000D9260A50DA220FC0DEFF10C0DDFF020EC1
:101270001324016E000E1420026E1200000E0001F5
:10128000926F000E936F000E886F000E896F000E34
:101290008C6F000E8D6FAC51AD11D8A452EF09F0D8
:1012A00054EF09F05AEF09F0000E806F000E816FC5
:1012B00079EF0AF0ACC090F0ADC091F0E0EF09F02A
:1012C00090C0D9FF91C0DAFF8051DE1807E181514B
:1012D000DE18D8A46EEF09F070EF09F09DEF09F069
:1012E0008C518D11D8B477EF09F079EF09F08BEFBD
:1012F00009F020EE02F09051D9269151DA2210EE39
:1013000002F08C51E1268D51E222DECFE6FFDDCFE7
:10131000E5FF95EF09F020EE02F09051D9269151AA
:10132000DA22DECFACF0DDCFADF0020E9025806F7B
:10133000000E9121816F79EF0AF090C0D9FF91C022
:10134000DAFFDE50805DDE508159D8B0AAEF09F097
:10135000ACEF09F0D2EF09F092519311D8B4B3EF8A
:1013600009F0B5EF09F0CAEF09F092C0D9FF93C0B8
:10137000DAFF90C0E1FF91C0E2FFDE50E65CDE5094
:10138000E658D8A0C6EF09F0C8EF09F0CAEF09F097
:10139000D2EF09F090C092F091C093F08CC088F029
:1013A0008DC089F090C08CF091C08DF020EE02F0DD
:1013B0009051D9269151DA22DECF90F0DDCF91F015
:1013C00090519111D8A4E7EF09F0E9EF09F060EF2F
:1013D00009F092519311D8B4F0EF09F0F2EF09F04F
:1013E00054EF09F020EE02F09251D9269351DA22FF
:1013F000DECF8EF0DDCF8FF092C0D9FF93C0DAFF41
:10140000DECF82F0DDCF83F08051825F8151835B3C
:10141000835109E1050E825DD8A011EF0AF013EFA8
:101420000AF057EF0AF092C0D9FF93C0DAFFDECF7F
:1014300082F0DDCF83F08051825F8151835BFE0EAD
:101440008225866FFF0E8321876F92C0D9FF93C0DC
:10145000DAFF80C0DEFF81C0DDFF92C0D9FF93C0FC
:10146000DAFFDECF82F0DDCF83F082519225846FE8
:1014700083519321856F020E84258A6F000E85218A
:101480008B6F8AC0D9FF8BC0DAFF86C0DEFF87C0B2
:10149000DDFF20EE02F08A51D9268B51DA228EC070
:1014A000DEFF8FC0DDFF8AC08EF08BC08FF09251BF
:1014B000AC1907E19351AD19D8A461EF0AF063EFBD
:1014C0000AF069EF0AF08EC0ACF08FC0ADF073EF98
:1014D0000AF020EE02F08851D9268951DA228EC016
:1014E000DEFF8FC0DDFF020E9225806F000E93217C
:1014F000816F12003C6E5550D8A481EF0AF083EF43
:101500000AF061EF0BF03CAE88EF0AF08AEF0AF0C8
:101510007AEF0BF0000E166E050E156E2DEC0CF02A
:1015200015C04FF016C050F03C380F0B060B4FC0E3
:10153000D9FF50C0DAFFDF6E20EE01F04F50D92600
:101540005050DA223CC0DFFF20EE02F04F50D92687
:101550005050DA223CC0DFFF010E556E7AEF0BF0DF
:10156000AEC033F0AFC034F04FC035F050C036F0ED
:101570003CC037F05DEC10F07AEF0BF05504D8A4C6
:10158000C4EF0AF0C6EF0AF0E7EF0AF04FC0D9FF48
:1015900050C0DAFF3CC0DFFF4FC0D9FF50C0DAFFB8
:1015A000DF503A6E3A50010DF3CF15F0F4CF16F03C
:1015B0002DEC0CF020EE03F04F50D9265050DA22DB
:1015C00015C0DEFF16C0DDFF552A7AEF0BF04FC0C5
:1015D000D9FF50C0DAFF5550DE5CD8A0F2EF0AF018
:1015E000F4EF0AF0B0EF0AF020EE03F04F50D926E6
:1015F0005050DA22DECF3AF0DDCF3BF055503A269C
:10160000000E3B22FE0E3A24D96EFF0E3B20DA6E0E
:101610003CC0DFFF20EE02F04F50D9265050DA22B6
:101620003C50DF1AE4EF0AF04FC0D9FF50C0DAFF98
:101630005550DE5CD8A01FEF0BF021EF0BF0B0EFA0
:101640000AF05504D8A427EF0BF029EF0BF041EF77
:101650000BF04FC0D9FF50C0DAFFDF503A6E3A505E
:10166000010DF3CF15F0F4CF16F02DEC0CF020EEB9
:1016700003F04F50D9265050DA2215C0DEFF16C0B5
:10168000DDFF20EE03F04F50D9265050DA22DECF96
:101690003AF0DDCF3BF055503A26000E3B22FF0ECC
:1016A0003A24D96EFF0E3B20DA6E3CC0DFFF20EEFD
:1016B00002F04F50D9265050DA223C50DF1AE4EFA6
:1016C0000AF04FC0D9FF50C0DAFFDF503A6E3B6AD4
:1016D0003B50000AD8B46FEF0BF014EF0BF03A5008
:1016E000000AD8B4B0EF0AF0060AD8B4BEEF0AF088
:1016F00014EF0BF01200000194519511D8A483EF60
:101700000BF085EF0BF087EF0BF0944B952B955179
:1017100007E1030E945DD8B090EF0BF092EF0BF061
:1017200098EF0BF0000E956F030E946FB1EF0BF076
:10173000941D966F951D976F975107E1020E965D68
:10174000D8B0A5EF0BF0A7EF0BF0B1EF0BF0000E48
:101750004C6E0C0E4B6E000E946F000E956F2CEFBE
:101760000CF094C080F095C081F03EEC09F080C090
:101770009CF081C09DF000019C519D11D8A4C3EF45
:101780000BF0C5EF0BF028EF0CF0AA51A85D966F97
:10179000AB51A959976F9451965D95519759D8B00F
:1017A000D4EF0BF0D6EF0BF006EF0CF0020E942501
:1017B0009A6F000E95219B6F9A0E806F6CEC0FF064
:1017C00080C09EF081C09FF000019E519F11D8A45F
:1017D000ECEF0BF0EEEF0BF0F0EF0BF0ABEF0BF0EC
:1017E000A8519E1909E1A9519F19D8B4FAEF0BF03D
:1017F000FCEF0BF000EF0CF09EC0AAF09FC0ABF026
:101800009A519E25A86F9B519F21A96FAAC09CF059
:10181000ABC09DF09CC098F09DC099F098C0D9FFD6
:1018200099C0DAFF94C0DEFF95C0DDFF020E982755
:10183000000E992398C09CF099C09DF0020E94254B
:10184000966F000E9521976F9651AA279751AB235B
:101850009CC094F09DC095F0120015501610D8A4AD
:1018600034EF0CF036EF0CF038EF0CF0154A162A76
:10187000165007E1030E155CD8B041EF0CF043EFB2
:101880000CF049EF0CF0000E166E030E156E62EFB1
:101890000CF0151C176E161C186E185007E1020E7E
:1018A000175CD8B056EF0CF058EF0CF062EF0CF06C
:1018B000000E4C6E0C0E4B6E000E156E000E166E6A
:1018C000DDEF0CF015C001F016C002F001EC08F0DD
:1018D00001C01DF002C01EF01D501E10D8A473EFF1
:1018E0000CF075EF0CF0D9EF0CF00001AA51A85DD7
:1018F000176EAB51A959186E1550175C1650185831
:10190000D8B085EF0CF087EF0CF0B7EF0CF0020EBB
:101910001524196E000E16201A6E190E016EC3ECF6
:101920000FF001C01FF002C020F01F502010D8A4FB
:101930009CEF0CF09EEF0CF0A0EF0CF05CEF0CF0C5
:101940000001A8511F1809E1A9512018D8B4ABEF24
:101950000CF0ADEF0CF0B1EF0CF01FC0AAF020C0FE
:10196000ABF019501F24A86F1A502020A96FAAC0ED
:101970001DF0ABC01EF01DC01BF01EC01CF01BC034
:10198000D9FF1CC0DAFF15C0DEFF16C0DDFF020E56
:101990001B26000E1C221BC01DF01CC01EF0020ED8
:1019A0001524176E000E1620186E1750AA2718500F
:1019B000AB231DC015F01EC016F0120001C007F0C9
:1019C00002C008F001500210D8A4E9EF0CF0EBEFD0
:1019D0000CF0EDEF0CF08BEF0DF0FE0E0724096E0E
:1019E000FF0E08200A6E0001AC51AD11D8B4FBEF18
:1019F0000CF0FDEF0CF081EF0DF009C0D9FF0AC02B
:101A0000DAFFDECF03F0DDCF04F003500724056ECC
:101A100004500820066E0550AC1907E10650AD19B8
:101A2000D8A415EF0DF017EF0DF041EF0DF020EEFB
:101A300002F0AC51D926AD51DA2210EE02F0095075
:101A4000E1260A50E222DECFE6FFDDCFE5FFACC0A3
:101A5000D9FFADC0DAFFDECF03F0DDCF04F0020E18
:101A60000326000E042209C0D9FF0AC0DAFF035082
:101A7000DE260450DD2209C0ACF00AC0ADF08BEFC9
:101A80000DF0ACC0D9FFADC0DAFFDECF03F0DDCF83
:101A900004F00350AC25056E0450AD21066E020E15
:101AA0000526000E06220950051807E10A500618FF
:101AB000D8A45DEF0DF05FEF0DF075EF0DF009C0EC
:101AC000D9FF0AC0DAFFDECF03F0DDCF04F0020E4B
:101AD0000326000E0422ACC0D9FFADC0DAFF0350CC
:101AE000DE260450DD228BEF0DF020EE02F00950CF
:101AF000D9260A50DA22ACC0DEFFADC0DDFF3BEFD5
:101B00000DF020EE02F00950D9260A50DA22DE6AE2
:101B1000DD6A3BEF0DF012001EEC12F00009D8B4A4
:101B200094EF0DF096EF0DF013EF0EF05450D8A493
:101B30009CEF0DF09EEF0DF0B3EF0DF020EE01F0F5
:101B40004D50D9264E50DA22DF50AD6E20EE01F016
:101B50004D50D9264E50DA22DF50536EFC0E5716E8
:101B6000542A35EF0EF054500B6E0C6A4DC0D9FF5D
:101B70004EC0DAFFDF500D6E0E6A010E0D26000E0C
:101B80000E220B500D1807E10C500E18D8A4CBEF05
:101B90000DF0CDEF0DF0E5EF0DF020EE02F04D5021
:101BA000D9264E50DA22DF50AD6E20EE02F04D50B5
:101BB000D9264E50DA22DF50536EB0C007F0B1C0C4
:101BC00008F0D6EC10F035EF0EF020EE03F04D509B
:101BD000D9264E50DA22DECF0BF0DDCF0CF0545078
:101BE0000B26000E0C22FF0E0B24D96EFF0E0C20CC
:101BF000DA6EDF50AD6E20EE03F04D50D9264E5018
:101C0000DA22DECF0BF0DDCF0CF054500B26000EA5
:101C10000C22FF0E0B24D96EFF0E0C20DA6EDF5063
:101C2000536EB0EF0DF05450D8A419EF0EF01BEF27
:101C30000EF01FEF0EF0A3EC11F023EF0EF052ECBC
:101C400012F0000E546E20EE03F04D50D9264E5087
:101C5000DA22DECF01F0DDCF02F0DEEC0CF04DC079
:101C600001F04EC002F0DEEC0CF01200000E166E19
:101C7000050E156E2DEC0CF015C028F016C029F0DD
:101C800020EE01F02150D9262250DA2210EE01F088
:101C90002850E1262950E222DFCFE7FF20EE02F0B4
:101CA0002150D9262250DA2210EE02F02850E126E7
:101CB0002950E222DFCFE7FF21C0D9FF22C0DAFF9F
:101CC00028C0E1FF29C0E2FFDFCFE7FF28C0D9FF2E
:101CD00029C0DAFFDF50236E2350010DF3CF15F03A
:101CE000F4CF16F02DEC0CF020EE03F02850D9269E
:101CF0002950DA2215C0DEFF16C0DDFF000E276E68
:101D0000A5EF0EF020EE03F02150D9262250DA2262
:101D1000DECF23F0DDCF24F027502324D96E000E30
:101D20002420DA6E10EE03F02850E1262950E2223A
:101D3000E6CF25F0E5CF26F027502524E16E000EF2
:101D40002620E26EDFCFE7FF272A28C0D9FF29C06F
:101D5000DAFFDE50275CD8A0B0EF0EF0B2EF0EF045
:101D600082EF0EF028C021F029C022F012002AC014
:101D700001F02BC002F006EC12F00009D8B4C3EF5A
:101D80000EF0C5EF0EF0C7EF0EF013EF0FF020EEE0
:101D900001F02A50D9262B50DA22DF502E6E2E5019
:101DA000020DF3CF2FF0F4CF30F020EE04F02A50E4
:101DB000D9262B50DA22DECF31F0DDCF32F02F5092
:101DC0003124D96E30503220DA6E2CC0DEFF2DC0A7
:101DD000DDFF20EE02F02A50D9262B50DA22DF2A2E
:101DE00020EE01F02A50D9262B50DA2210EE01F015
:101DF0002A50E1262B50E222E7502E6E010E2E24AF
:101E0000016E026A000E022210EE03F02A50E12653
:101E10002B50E222E7502F6E2F50036E046A14EC11
:101E20000FF00150DF6E1200000E066E02BE1DEFB5
:101E30000FF01BEF0FF023EF0FF0016C021ED8B074
:101E4000022A010E066E04BE2AEF0FF028EF0FF0F3
:101E50002EEF0FF0036C041ED8B0042A03500410B8
:101E6000D8B435EF0FF037EF0FF05BEF0FF0010E46
:101E7000056E3FEF0FF0D89003360436052A04AE06
:101E800044EF0FF046EF0FF03BEF0FF00350015C13
:101E900004500258D8A04FEF0FF051EF0FF055EF5C
:101EA0000FF00350015E0450025AD89004320332FE
:101EB000052E46EF0FF00650D8B461EF0FF063EF38
:101EC0000FF067EF0FF0016C021ED8B0022A01C0BC
:101ED00001F002C002F0120000018051D96EDA6AEE
:101EE000DECF84F0DDCF85F0A651A711D8A47BEF1B
:101EF0000FF07DEF0FF081EF0FF0800EA66F0F0E49
:101F0000A76F855107E1050E845DD8B08AEF0FF009
:101F10008CEF0FF090EF0FF0000E856F050E846FC1
:101F20008451A65D866F8551A759876FB60E826F63
:101F3000000E836F8251865D83518759D8A0A3EF2D
:101F40000FF0A5EF0FF0B0EF0FF0A651865DA7518F
:101F50008759D8A0AEEF0FF0B0EF0FF0BAEF0FF047
:101F6000000E4C6E0C0E4B6E000E806F000E816FDB
:101F7000C2EF0FF086C0A6F087C0A7F0A6C080F021
:101F8000A7C081F012000150D96EDA6ADECF05F0E9
:101F9000DDCF06F00001A651A711D8A4D2EF0FF0B3
:101FA000D4EF0FF0D8EF0FF0800EA66F0F0EA76FD3
:101FB000065007E1050E055CD8B0E1EF0FF0E3EF46
:101FC0000FF0E7EF0FF0000E066E050E056E0550E0
:101FD000A65D076E0650A759086EB60E036E000E7A
:101FE000046E0350075C04500858D8A0FAEF0FF0B5
:101FF000FCEF0FF007EF10F0A651075CA75108584F
:10200000D8A005EF10F007EF10F011EF10F0000E60
:102010004C6E0C0E4B6E000E016E000E026E19EF30
:1020200010F007C0A6F008C0A7F0A6C001F0A7C036
:1020300002F0120042EF10F0AB8E829CA3EC11F084
:102040005CEF10F01EEC12F00009D8B42AEF10F08B
:102050002CEF10F01EEF10F0FC0E57165CEF10F096
:102060008CEC0DF01EEC12F00009D8B43AEF10F031
:102070003CEF10F01EEF10F0FC0E57168CEC0DF03C
:102080005CEF10F05750030B0F6E106A1050000AEF
:10209000D8B44DEF10F05CEF10F00F50010AD8B437
:1020A0001CEF10F0030AD8B422EF10F0010AD8B4E4
:1020B00030EF10F05CEF10F0120020EE02F035501F
:1020C000D9263650DA22DF50386E396A3750382632
:1020D000000E392238283910D8A471EF10F073EFB0
:1020E00010F087EF10F033C02AF034C02BF035C069
:1020F00021F036C022F036EC0EF021C02CF022C0C8
:102100002DF0B7EC0EF0A3EC11F089EF10F052ECCB
:1021100012F020EE03F03550D9263650DA22DECF09
:1021200001F0DDCF02F0DEEC0CF035C001F036C07E
:1021300002F0DEEC0CF0000E556E1200000120EEF5
:1021400003F0A051D926A151DA22A2C0DFFF20EE70
:1021500003F0A051D926A151DA22DF50A36FA35179
:10216000030DF3CF94F0F4CF95F07BEC0BF000016E
:1021700020EE04F0A051D926A151DA2294C0DEFF4E
:1021800095C0DDFF20EE02F0A051D926A151DA2240
:10219000DF6AA0C0D9FFA1C0DAFFDF6A20EE01F03C
:1021A000A051D926A151DA22DF6A120007C001F03E
:1021B00008C002F032EC12F00009D8B4E2EF10F0DF
:1021C000E4EF10F0E6EF10F00CEF11F007C0D9FFCC
:1021D00008C0DAFFDF50096E010E0924016E026AA1
:1021E000000E022220EE03F00750D9260850DA2212
:1021F000DF500A6E0A50036E046A14EC0FF00150AF
:1022000007C0D9FF08C0DAFFDF6E20EE02F00750EA
:10221000D9260850DA22DF061200AECF3DF0545026
:10222000D8B415EF11F017EF11F03CEF11F03D505D
:102230005318D8A41EEF11F020EF11F024EF11F085
:102240008CEC0DF03FEF11F020EE03F04D50D9264D
:102250004E50DA22DECF01F0DDCF02F0DEEC0CF0E2
:102260004DC001F04EC002F0DEEC0CF0000E546EDA
:1022700052EC12F03FEF11F03D507AEC0AF01200F0
:10228000000E9B6E700ED36E47EF11F00000D3A4CA
:102290004CEF11F04EEF11F046EF11F09B8C939242
:1022A00072EC11F08A92150E0001A56F4B0EA46F0F
:1022B000BE0EE82EFED7A42FFCD7A52FFAD700001C
:1022C0008A82150E0001A56F4B0EA46FBE0EE82E7C
:1022D000FED7A42FFCD7A52FFAD7000052EF11F09C
:1022E00094EF00F0000E0001956F030E946F7BECED
:1022F0000BF094C0B0F095C0B1F0B0C0A0F0B1C088
:10230000A1F0800E0001A26F9EEC10F0000E000103
:10231000956F030E946F7BEC0BF094C0AEF095C0FC
:10232000AFF0AEC0A0F0AFC0A1F0800E0001A26F70
:102330009EEC10F071EC12F043EC12F065EC12F030
:102340005DEC12F0120051C001F052C002F0EDEC51
:1023500011F001C007F002C008F007C051F008C03A
:1023600052F0FF0E0716030E0816180E0726060E6B
:102370000822071C056E081C066E06C005F0066ADA
:102380000550CF6E0750FF0ACE6E5750FC0B010967
:10239000576E1200EA0EF66E240EF76E000EF86EFF
:1023A00000EEB2F010EE04F00900F5CFEEFFE550BC
:1023B000E150FAE100EEA6F00C0EEE6AE806FDE14F
:1023C00000EE47F0110EEE6AE806FDE158905892D3
:1023D000000EF86E000140EF11F0010E0114036EC3
:1023E000046AD8900232013203500410D8B4FBEFD3
:1023F00011F0FDEF11F001EF12F0000E011AB40E12
:10240000021A01C001F002C002F0120020EE03F037
:102410000150D9260250DA2210EE02F00150E126D6
:102420000250E222DE50E618D8B419EF12F01CEF89
:1024300012F0010E1DEF12F0000E1200000E016EE0
:1024400082AE25EF12F027EF12F030EF12F0B8ACA9
:102450002CEF12F02EEF12F030EF12F0010E016EA1
:102460000150120020EE02F00150D9260250DA226B
:10247000DF50D8B43EEF12F041EF12F0010E42EF00
:1024800012F0000E1200949C948E6CEC12F0B88640
:10249000B888AC98AC94AC8AAB98AB88AECF56F009
:1024A000AB8E1200AB9E828CFC0ECF6E7B0ECE6E7E
:1024B0005750FC0B0209576E12009F909F9AD08EC6
:1024C000F28EF28C9D8A9D801200000ECF6E000E5F
:1024D000CE6E310ECD6E1200000EB06E770EAF6E66
:0E24E0001200010EB46E929812000048E8013E
:020000040020DA
:08000000FFFFFFFFFFFFFFFF00
:020000040030CA
:0E000000FF08191EFF0180FF0FC00FE00F4028
:00000001FF
